:1000000081317D29FF3FFF3F7E1480314E01961ED6
:100010000A280B2865298C1E0E280F286529823195
:10002000FC22803101304001AB070030AC3D17307D
:100030008231AA22803170084001B5007108B600F3
:10004000B636B50C3508AF003608B000173082312F
:10005000AA22803170084001B5007108B600B6369A
:10006000B50C3508AF073608B03D033030028E308E
:1000700003192F0203183D283E284728013030027B
:10008000E63003192F020318462847284A28FD01A5
:10009000FD0AAD010D1A4D284E285D280130A70735
:1000A0000030A83D013028022C3003192702031C20
:1000B0005A285B285F28FD015F28A701A8010E18B8
:1000C0006228632872280130A5070030A63D13304E
:1000D0002602883003192502031C6F287028F52892
:1000E0000830FD00A501A601F52803303002673075
:1000F00003192F0203187D287E288C280130300236
:10010000F93003192F02031C862887288C28013018
:10011000B5003508AD078D28AD010B302D02031C4D
:10012000922893283F290230FD003F2901302C02FC
:100130002C3003192B02031C9E289F283F290330D3
:10014000FD00AB01AC013F2900302C020A3003193D
:100150002B02031CAC28AD283F290430FD00AB0165
:10016000AC0181318F218031003A0319B828B928B8
:100170001A29FD013F2900302C025A3003192B02A5
:10018000031CC328C4283F290530FD00A1280030E6
:100190002C02143003192B02031CCF28D0283F292E
:1001A0000630FD00A12800302C020A3003192B0272
:1001B000031CDB28DC283F290730FD00AB01AC0124
:1001C00081318F218031003A0319E728E8281A2964
:1001D000B92800302C020A3003192B02031CF12825
:1001E000F2283F290230FD00A1287D08B500B601A4
:1001F0003608003A0319FD283F293508003A03194B
:100200003F29013A03197528033A03199628013A40
:100210000319A428073A0319BB28013A0319C72870
:10022000033A0319D328013A0319E9280F3A0319AD
:100230003F293F293F291A119A1598127B291A1133
:100240009A1198127B291A119A1198127B291A1562
:100250009A1598167B291A159A1198167B291A1146
:100260009A1198127B291A159A1198167B291A153A
:100270009A1198167B291A159A1198127B297D08D4
:100280004001B500B6013608003A031948297B2918
:100290003508003A03191B29013A03191F29033AAB
:1002A00003192329013A03192729073A03192B298E
:1002B000013A03192F29033A03193329013A031983
:1002C00037290F3A03193B297B29161E682969290A
:1002D0007B290C1E6C296D297B29833131238031C8
:1002E0004001AB01AC0102307D02031C7829792961
:1002F0007B290330FD007E10090081317F29833185
:1003000058238131FD0020308400003085001130F9
:100310008331422381317E1040018231EC2A023048
:100320008231AA2281317008F9007108FA00FA3688
:10033000F90C79084001A9007A08AA00023082313C
:10034000AA2281317008F9007108FA00FA36F90C16
:1003500079084001A9077A08AA3D02303002EE3040
:1003600003192F020318B529B629D7293008F1003F
:100370002F08F0003330F2000030F30082318B227E
:1003800081317008F9007108FA000530FA36F90C6D
:10039000890BC6297908AF3EFB00FC307A3DFC0092
:1003A0007B084001A0007C08A100A201FB292F08C6
:1003B000F0003008F100F201AD30F3000030F4003D
:1003C0000030F5008231612281317008F900710836
:1003D000FA007208FB000630FB36FA0CF90C890BA8
:1003E000EC296E3079074001A000F9307A3DA10078
:1003F000FF307B3DA2002908F9002A08FA00FB0122
:100400007B082202031D0A2A7A082102031D0A2AF8
:1004100079082002031C0D2A0E2A202A00302A0205
:100420003230031929020318162A172A252A023006
:1004300030029F3003192F02031C1F2A202A252A6D
:100440000130F9007908AE07262AAE010A302E02E3
:10045000031C2B2A2C2A2F2AAE010130302A00300F
:10046000080040019801103099009A013F30920035
:10047000F0309300E2309400E0307E01CE00E030B6
:10048000C3003730B800C401B901CF01BA01C501BA
:10049000D0013F30BB00C6013F30D1003F30BC002F
:1004A000C7013F30D2004A12491648125A30400163
:1004B000B7000330B80083314E2382314E01161647
:1004C00008000030F6000030F7000030F800701C23
:1004D0006A2A6B2A712A7308F6077408F73D7508B3
:1004E000F83D0130F335F40DF50D890B722A01301A
:1004F000F236F10CF00C890B782A72087104700442
:10050000031D832A842A672A7608F0007708F10001
:100510007808F2000800F401F501701C902A912A75
:10052000952A7208F4077308F53D0130F235F30D92
:10053000890B962A0130F136F00C890B9B2A700842
:100540007104031DA42AA52A8D2A7508F1007408D8
:10055000F0000800F3007308F200F20DF20D410103
:100560001D087206033972069D001D140032003208
:10057000000041019D149D18BE2ABF2ABB2A1C08F9
:10058000F1001B08F000080078304B019F007C3020
:100590009D009C014E018C12961659304001B70007
:1005A0000330B80083314823823180304B019E00F4
:1005B000080083313A238231823131228231833102
:1005C0002623823183315423823183311A238231AD
:1005D0008231C422823108008231D92282318B17C4
:1005E0000B17400192121414941712157E01CE17A6
:1005F0003815F92A81317D294E018C1240013108CC
:1006000032040319042B052B0A2B32088A00310807
:100610000A00833108004001330834040319112B08
:10062000122B172B34088A0033080A0083317E010D
:100630004A120800E33041019E008F3052018C00C5
:1006400041019B019C0101309D0008006030510177
:100650008D008F014030910006309300900192018F
:1006600008007E01481A352B362B392B83310B239A
:10067000833108004F0196019701980199019A0171
:100680009B010800640080010131890B432B003479
:1006900040013808B2003708B100080040013808AE
:1006A000B4003708B3000800853052018C00080000
:1006B000023408000800FF3FFF3FFF3FFF3FFF3FBE
:020000040001F9
:08000000FF3FFF3FFF3FFF3F00
:0A000E00EC3FFF3F9F3FFF1FFF3F45
:00000001FF
