:020000040800F2
:1000000098440020D500000815250108C1FF00080C
:1000100000000000000000000000000000000000E0
:100020000000000000000000000000007F48010800
:1000300000000000000000009D280108E1660108A2
:10004000E7000008E70000087F360108E700000825
:10005000E700000859C2000869C2000879C2000818
:10006000E7000008E7000008E7000008B1C000084A
:10007000E7000008E7000008E7000008E7000008C4
:10008000C9690108E7000008E70000080000000057
:10009000E7000008E7000008E7000008E7000008A4
:1000A000E7000008E7000008E7000008697201089F
:1000B00079720108E700000800000000E70000086E
:1000C0000348854600F090FD004800479F870108DF
:1000D000984400200448804704480047FEE7FEE7B4
:1000E000FEE7FEE7FEE7FEE781690108C1000008C0
:1000F00030B50B46014600202022012409E00D46C0
:10010000D5409D4205D31D469540491B2546954047
:1001100040191546521E002DF1DC30BD70B500248B
:100120002546002801DA01244042002901DA012590
:100130004942FFF7DDFFAC4200D04042002C00D026
:10014000494270BDF0B51FB40646002082B0054696
:100150004024019100901BE0019922460F46304651
:1001600000F0EEFB049A059B801A994110D31046CB
:100170001946224600F0D4FB361A8F4101972246D9
:1001800001200021009F00F0CBFB38184D4100906A
:100190002046641E0028DFDC019B00982946324679
:1001A00007B0F0BD03460B439B0703D009E008C925
:1001B000121F08C0042AFAD203E00B780370401C17
:1001C000491C521EF9D27047D2B201E00270401CA5
:1001D000491EFBD270470022F6E710B513460A46C7
:1001E00004461946FFF7F0FF204610BD30B504461F
:1001F0000020034600E05B1C934203D2E05CCD5C30
:10020000401BF8D030BD0321001D401E03781202B0
:100210001A43491EF9D510467047F8B502464A40C0
:10022000D40F42004B0052085B089A4202D20246A9
:10023000084611464A0023D0C30D4A00DDB2120E13
:10024000AD1A202D35DA49020126490AF6058A1928
:10025000002C00D0524220214F1B1146B9402A41A8
:100260001018C20D9A4221D0002C17D0012D08DCA5
:10027000DA05801AD20F8019D207DBB200F08CFBAE
:10028000F8BDDA05801A012340001B06C01880184B
:100290005A428018CA0F1043490007E04908C207B4
:1002A0001143DA05801A80194008801800F06CFBB1
:1002B000F8BD61000122511A001BF7E70122D207A5
:1002C0005140AAE70122D2075040A6E7024670B586
:1002D0004A40D30FDB0740002DD04A002AD0010E40
:1002E000140E000212020919400A520A8418E5018C
:1002F00004465443000A120A2E045043A41942191A
:10030000200CC543AA18120C0125AD03521C52192A
:1003100012047F39240400D0521C104301D4400041
:10032000491EC2B20C06C0092018401C4008802A91
:1003300002D003E0002070BD40084000002900DA30
:100340000020184370BD70B502464A40D50F4000EA
:100350004A00ED0740085208002814D0002A12D0A5
:10036000C40DD30D41020120C0055202490A520AB0
:10037000E41A091812187D34914201D3641C00E07C
:100380004900002C01DA002070BD0023914201D306
:10039000891A0343400849000028F7D100290AD0F0
:1003A000914202D10121C90705E0914201D2012108
:1003B00001E00121C943E005C018401900F0E4FA4A
:1003C00070BD0000F0B507460846584087B0C00F22
:1003D000049048000E46590040084908BC1A88415C
:1003E00005D2384631461E4617460B46024658008F
:1003F000400810434CD0300D039040055900400D8B
:10040000490D0590401A0290402872DA1803012124
:10041000000B09050843019004980092002805D0BC
:100420000199524200208841009201900298402197
:100430000A1A0199009800F073FA05460C466B46BB
:1004400007CB00F08EFAC0197141039A0E0D0023FC
:10045000D71756401A467A40164344D0049A002AC9
:100460002DD0029A012A039A15DC1205C01A914177
:1004700001263605001C7141D20F059ED20700935C
:10048000019202962A46234600F0CCFA07B0F0BD4E
:1004900038463146FAE71605224A0F46B218C01A06
:1004A000B74101210905001C4F4100187F41114649
:1004B00018187941E20F10436D19644113E0E20707
:1004C0006D0815436408C2071443039A01261205F8
:1004D000C01A91413605001C7141CE0740083043D7
:1004E0004908C01851412A46234600F08EFACDE74C
:1004F000FFE7049801224000C117121A00238B4124
:1005000004983146C417381AA141EEE730B40124EB
:10051000E407634030BC55E730B40124E407614090
:1005200030BC4FE70000E0FFF0B51FB488B00B9976
:100530000998002448400999C00F490049080991C9
:10054000C0070B990090490049080B910999089838
:10055000A64608431CD00B990A98084318D009985E
:1005600001244000420D4800410D09982405000374
:10057000000B204309900B980003000B20430B90C5
:1005800050181C494018002201901446104605E0FE
:10059000002001460DB0F0BD032801DA034600E05B
:1005A00003239C46C11A0AAE0AE05F0008ADED5B6A
:1005B0004F00F75B7D430027AA187C41491C5B1E56
:1005C0006145F2DD410004AB5A522104120C0A438A
:1005D000240C401C0828DFDB01980290009970462B
:1005E00001910090059B049A0799069800F01AFA69
:1005F000D0E700000DFCFFFFF0B50C465C4085B075
:10060000E40FE40703944C00002664085900944664
:10061000490802460296224321D062460A431ED070
:100620006200570D4A000E032303550D01240246B4
:100630002C492405781B1B0B360B401823432643FB
:10064000614600901C46501AB44103D30098401CE8
:10065000009002E0921800985B41002803DA002025
:10066000014605B0F0BD0020012109050746864678
:1006700011E064461D46141BB54106D36546521B66
:10068000B341744607430C43A646CD0740084908CA
:10069000284392185B4105460D43EAD110461843A2
:1006A00013D06046194650407140084306D060465A
:1006B000101AB34106D20122002306E000220123D2
:1006C000DB0702E00122D243531000987446010573
:1006D000381C6141029C039D0019694100F095F9A5
:1006E000BFE70000FD03000070B54B005B0803434B
:1006F0000BD04B005C0D002633466542B341D41746
:10070000AD1AA34102DB0020014670BD120530186E
:10071000514170BDC217C10F504010B54018CA07F3
:100720009623002100F038F910BD10B50022962361
:10073000114600F031F910BD0EB5C217C10F50407F
:10074000CA0740180021054B0293019200910A4606
:100750000B4600F067F903B000BD00003304000051
:100760000EB505490291002100910A460B46019100
:1007700000F058F903B000BD33040000C20F41007F
:1007800040020123400ADB05D207090EC0187F2969
:1007900001DA00207047962903DC9623591AC840D5
:1007A00001E096398840002AF4D040427047410069
:1007B00040020122400AD205090E80187F2901DA81
:1007C00000207047962903DC9622511AC8407047D2
:1007D000963988407047000070B5CD0F4A00090374
:1007E0000123090B1B0519430B4BED070024520D88
:1007F0009A4201DA002070BD074B34339A4203DC81
:100800009A1A00F09DF802E00449511888402C43E0
:10081000F1D0404270BD0000FF030000CDFBFFFFA0
:100820004A0009030123090B1B051943094B10B5A5
:10083000520D9A4201DA002010BD064B34339A4221
:1008400003DC9A1A00F07CF810BD03495118884067
:1008500010BD0000FF030000CDFBFFFFC20FD20759
:10086000400040080BD0C10D0723DB01C91840022E
:100870000905400A1143C208400711437047002090
:100880000146704710B5002904DB0124E40740420B
:100890008C412146002B04DB1C460123DB0752421E
:1008A000A3418B4200D1824210BD000010B5002947
:1008B00004DB0124E40740428C412146002B04DB89
:1008C0001C460123DB075242A341994200D19042CA
:1008D00010BD0000CB0FDB07490010B549080246E8
:1008E0000A4307D00A0D07240903E401090B121B70
:1008F000002A01DC002010BDC900440F0C43C100D8
:10090000E018D205801800F03FF810BD0122D20790
:10091000002800DB101A002900DB511A88427047BA
:1009200010B5202A04DB0146203A9140002010BD7A
:10093000914020239C1A0346E3401943904010BD88
:1009400010B5202A04DB0846203AD040002110BD13
:100950000B46D340D0402024A21A914008431946A8
:1009600010BD10B5202A06DBCB170846203A1041EF
:10097000C1170B4306E00B461341D0402024A21AB6
:1009800091400843194610BD002904DA401C490073
:1009900001D140084000704770B40024050C05D117
:1009A0001024000402D1002921D01124050E01D108
:1009B00000020834050F01D10001241D850F01D16B
:1009C0008000A41C002801DB4000641C002908D022
:1009D00020252E1B0D46F540A14000D001212943C2
:1009E000084301061B1B000ADB1D02D5002070BC5A
:1009F0007047DB05181880180029F8DA401C4900F8
:100A0000F5D170BC40084000704710B5002B08DAE3
:100A10000024401C614192185B411A4301D14008F7
:100A2000400010BDF0B51FB482B005460C0003D0E5
:100A3000084616F0E9FC02E016F0E6FC203002461B
:100A4000009021462846FFF76BFF049B059A044659
:100A50000F4618431143084314D0184610431BD0C7
:100A6000009840210A1A18460599FFF769FF0546C4
:100A70000E46009A05990498FFF752FF084305D0E7
:100A8000012004E02046394607B0F0BD0020C11720
:100A900005430E432C43374300990E986305401AD3
:100AA0007905E40A00220C43FD0A0A3002D5002031
:100AB0000146E9E70105101969410C9C0D9D0019DB
:100AC0006941FFF7A2FFDFE7FEB500231A461B1AB4
:100AD0008A4103DB0020014603B0F0BD4A000D034C
:100AE00001212D0B0905520D0D43D10702D100182C
:100AF0006D41521E5110FF31FF3101310027044674
:100B00003E46384600970191024601210020090522
:100B1000FFF716FFC3197141F818324684468E4616
:100B20004A4161462846611A904104D36046241A1E
:100B3000954176461F46241900986D41401C00904F
:100B40003428E1DDF91930467041091BA84103D270
:100B50000022D243134601E000221346019801050A
:100B6000381C7141FFF751FFB6E70000F8B50546A4
:100B7000480040080C46284304D06000184A400D45
:100B8000904201DD2846F8BD15493539884210DC10
:100B900088420BDB290D200308432903014305D0BC
:100BA000E00F1049C00741180020F8BD00200146A1
:100BB000F8BD161A4020821B28462146FFF7B0FEDA
:100BC00007460091284621463246FFF7B9FE3A46CD
:100BD000009BFFF71AFF3246FFF7A2FEF8BD0000A8
:100BE000330400000000F03F064C0125064E05E0EE
:100BF000E36807CC2B430C3C98471034B442F7D33E
:100C0000FFF762FAD0940108F0940108420005D081
:100C10004200120E52428A4201DB00207047C90591
:100C20000818704770B58C180578401C6B075B0F6F
:100C300001D10378401C2A1106D10278401C03E040
:100C400006780E70401C491C5B1EF9D12B0705D499
:100C50000023521E0DD40B70491CFAE70378401C88
:100C6000CB1A921C03E01D780D70491C5B1C521EB0
:100C7000F9D5A142D8D3002070BD000038B5044694
:100C8000064805490068FFF733FA604300E0401E5C
:100C900000900028FBD138BD40420F0038100020E2
:100CA000F8B50446006881688907890F012902D1D7
:100CB0000168C90722D18168114A10261140012517
:100CC00000290ED18168294381600120FFF7D6FFFA
:100CD0000CF016F807460CE00CF012F8C01B0A28BE
:100CE00007D9A06D3043A065E06D2843E065012081
:100CF000F8BD20680068C043C007EDD10020F8BDF2
:100D000017000080F0B589B00C460746102200217C
:100D1000684617F0AFFD69462246084617F07CF892
:100D200068460078872600066A4600280FDA002009
:100D30001318115C5B784900DB0919431154401CFE
:100D40000F28F5DBD07B1146400070400DE00020FD
:100D50001318115C5B784900DB0919431154401CDE
:100D60000F28F5DBD07B11464000C873E11DF93137
:100D70004869102812D0107800061BD500201518DD
:100D8000135C6D785B00ED092B431354401C0F2856
:100D9000F5DBD07B13464000704019E0002021189D
:100DA000FF3101314B78155C401C6B404B701028B3
:100DB000F5DB26E000201518135C6D785B00ED096B
:100DC0002B431354401C0F28F5DBD07B1346400007
:100DD000D873E51D4B698020FA355855002300E093
:100DE00043554869401C48611028F9D30020211858
:100DF000FF3101314B78155C401C6B404B70102863
:100E0000F5DB002023181A46FF33E0320133517C12
:100E10005B78401C594051741028F3DB21461022A6
:100E2000F13104A817F00EFD2246394604A816F049
:100E3000F3FF10220021684617F01CFD09B0F0BD39
:100E400010B5044610220021F13017F013FDFF20E9
:100E5000002115300151F022204617F00BFD10BD86
:100E60000B4610B502461021184616F0FFFF10BDC4
:100E7000F0B50646FF3087B00D4601300590F11DF4
:100E80004069FA310691103914460491002843D084
:100E900010210F1AA74200D317460699BAB240187C
:100EA000294617F0CFFC059805994069C01948619B
:100EB00010283AD3BC4238D0002031180A46FF31FE
:100EC000E0320131537C4978401C4B405374102868
:100ED000F3DB04993246084616F09EFFED19E41B39
:100EE0001AE00022B018E030417CAB5C521C594043
:100EF0004174102AF6DB10226846049917F0A2FC10
:100F000069463246084616F087FF10226946049863
:100F100017F098FC103C1035102CE2D8A2B22946EC
:100F2000069817F08FFC0598446107B0F0BD0000EB
:100F300038B5114C206FFF30FF300230C17D827D0B
:100F4000914217D2082915D8491CC175206FC907CD
:100F500010D021216A461170FF210131095C917086
:100F6000D521095C51700078694613F090FA216F21
:100F7000C031487538BD0000A8180020FFB5102505
:100F800004464557112085B0205601900898A16865
:100F900001606079002701283DD169460870A07C76
:100FA0008870E07C13F073FA46B2B54200DC354637
:100FB000B54203D10898002101602CE0A189A06806
:100FC000884208D30720694608700127E07C13F0A7
:100FD0005EFA40B20190A089E1894218A06882427D
:100FE00019D8FFF785F8012915D121206946087025
:100FF0004D70A07C8870E07C13F049FA45B2B54290
:1010000009D120790027012805D169460873E07CC1
:1010100002A913F045FA069805700799019808701F
:10102000384609B0F0BD0000FEB51C4C1122216FFE
:1010300052018A18127900250126002A6A462AD010
:101040001670FF3101318A7C69468A70144FC8706E
:10105000B86C15F0A2FD0190E06802900F48694657
:101060004D706030407B400706D500200FF0CAFA73
:10107000002801D068464670206F6946007812F05B
:1010800021FB216FE068FF31FF310231898B414341
:10109000081A7864FEBD1570D3E70000A818002078
:1010A000A817002030B50024074B43431B0D04D084
:1010B000E4183C256B43C01AF6E73C2801D33C38C2
:1010C000641C10600C6030BD4444000000220749DD
:1010D0004143890D04D052183D235943401AF6E785
:1010E0003D2800D3521C104670470000970C0100A9
:1010F000024610B589074000002902D03B2A02D3DE
:101100000BE03C2A02D2FFF7E1FF10BDD52A01D245
:10111000783805E0FF38AB3808E0D42A04D27638B6
:10112000FFF7D4FF801C10BDFF38A938FFF7CEFFB2
:10113000C01D10BD0449C96D002903D0896800296C
:1011400000D0084770470000A8170020F0B587B00E
:101150001D4614460F4606000CD0002D0AD0134839
:101160000490FFF76DFE05A920460BF0A5F90400D9
:1011700003D019E0022007B0F0BD05990498491C7E
:10118000FFF76EFE3A4631460498FFF771FE684657
:101190000499FFF7B7FD00A80130FFF734F869465E
:1011A00009780002084328602046E4E7281F002051
:1011B000FFB5C7B0539E17460C46050008D0002E59
:1011C00006D0FF200130844204D90B204BB0F0BD83
:1011D0000720FBE7FF221132002103A817F04AFB8A
:1011E000519803AA6B46529907C339462046509B33
:1011F0004A9A11F055FB2246294607A817F022FB10
:101200001034A1B233463A4603A814F05DFF00281B
:10121000DCD00C20DAE7FFB5C9B0569E17460C4665
:10122000050008D0002E06D0FF200130844204D9EA
:101230000B204DB0F0BD0720FBE7FF22113200214B
:1012400004A817F017FB53A807C8009004AB01A827
:101250000EC039462046529B4C9A11F053FB224651
:10126000294608A817F0EEFA1034A1B233463A46E0
:1012700004A814F029FF0028DBD00C20D9E7FFB523
:10128000002685B03746354630460096002440009B
:1012900003900799095A0120A04001422BD0291937
:1012A0000C2202915143089A5258002A23D0059AE1
:1012B000002A02D10006000E1DD008980918082047
:1012C00001910856021100070117069840B212F06A
:1012D000FCFB00280FD00198407A01010E980818F5
:1012E000C068002802D07F1CFFB204E00F9902986A
:1012F0008855761CF6B2641CE4B2102C01D2039817
:10130000C7E700981035401CEDB2C0B20090102D18
:10131000BCD310980770304609B0F0BD00B502F09C
:1013200089F80549002804D088898A8A904201D228
:10133000401C888100BD0000282F002030B51649D0
:1013400001244A7AC87A154B032A01D1072804D010
:10135000042815D0052812D10DE0487B04280ED1B1
:1013600002F068F8002803D09889998A884207D249
:101370000020987404E00A48007C002800D19C7486
:1013800007482030807C002800D09C749889998A76
:10139000884200D39C7430BD28260020282F0020CE
:1013A000282700200548C18A002906D10179002993
:1013B00001D1417901710121C1827047A827002024
:1013C00010B5064C207B002807D102F0BDFA20732F
:1013D00015F0DDFB21464039886410BDA8260020A9
:1013E0000548418B002906D10179002901D14179B5
:1013F0000171052141837047A8270020F0B5CE4E2A
:1014000087B000200490717AF51DF07AF935002933
:101410001DD03446403C2246803205924032029232
:1014200060321746FF3460370134009201291AD028
:101430002246E03A0392FF3241320192022955D00E
:10144000032970D0002001F05BFB07B0F0BD00283D
:10145000FBD104F081FC287B002801D004F012FAB3
:1014600004F0BAF9F1E703F0C9FE0028EDD1F07AF3
:10147000012806D00228E8D10298407B012823D019
:1014800025E01420205605280DD0009989780129DF
:1014900002D1228C012A06D001280CD004280AD0BF
:1014A000012805D009E00099002088702084C3E05D
:1014B000B879002801D00821BFE00129C5D1208CCE
:1014C0000128C2D00621B8E00298007F0490059858
:1014D0003A7AC18D049810188142B6D9287C002828
:1014E000B3D1B17A307A00F02BF9AEE7052831D0CC
:1014F0000EDC924E032817D00428A6D104F0C2F9BE
:1015000001203146B0702031C87303F0FBFE9CE728
:10151000162850D0192898D104F0B4F90199012067
:101520008870087191E767E004F0ACF90120287336
:10153000B07004F011FC002887D000202873E881E7
:101540000120A07515F023FBA06115F020FB0121FF
:1015500038662EE004F096F901203071764820308C
:10156000C07E032801D00AF09BFC0298407B012832
:1015700002D10298007F049005983A7AC18D0498B0
:1015800010188142B1D92C21795E388E029A0B183D
:101590001421515E8B42A8DA2E22BA5E101A8842BC
:1015A000A3DD287C0028A0D1A877E87701990870EE
:1015B0000221012097E703F021FE012030715E48EF
:1015C0000A3803F003F8687F002805D1287B00283B
:1015D00002D1A87C002808D004F054F903980078C0
:1015E000002894D0052102207DE753493620403958
:1015F000085E04F033F8F1E703F000FE002886D11E
:10160000F07A0425062837D0072818D0082889D171
:1016100003F0B0FF207D052809D0009880780128CC
:10162000C1D1208C012802D004F02CF94AE700999E
:1016300000208870208475730721032053E701F090
:101640006BF914202056012800D134E70428FCD07F
:10165000012802D1B9790029F7D1009989780129A7
:1016600002D1228C012AE1D10528E0D001299AD1AA
:10167000208C0128DBD0E8E60398C078002834D01D
:1016800001203071208CFF3815380ED0012819D078
:101690000A2802D014282AD121E0274928204039DD
:1016A000085E03F0DBFF09211CE023492C204039B0
:1016B000085E088503F0D2FF03980078002816D052
:1016C00005210FE01C492E204039085E088503F0F3
:1016D000C5FF03980078002809D0062102E004F035
:1016E000D1F80A210198C17401E004F0CBF814206C
:1016F000205605280DD000998978012902D1218C26
:10170000012906D001280ED004280CD0012807D0CA
:101710000DE000990020887020847573072103E094
:10172000B879002803D00821032000F009F80099B7
:101730000020887089E6000028260020A8270020C5
:1017400010B50B4A537A834202D1D37A8B4209D027
:10175000032801D1107291725072D17206F042FBCF
:1017600006F028FC08F080F800F088FA10BD0000B0
:1017700028260020F0B5FF4E89B000243470747024
:101780000320F07001F08CF9FB498868FB4A904215
:1017900004D00120C00688600BF0E0FD15F0A2F82F
:1017A0000EF0D0F810F0D4FC06F060F8002801D15B
:1017B00006F0C6FA10F0E8FD10F01EFE10F044FC32
:1017C00010F0ACFD10F006FD10F036FD10F006FC38
:1017D00010F010FD10F0E8FC62B664200BF0ACF9DC
:1017E000012108460EF028FD7D20C0000BF0A4F971
:1017F000E34D03E00020401CA842FCDB09F0BAFFE7
:101800000028F7D104F0A0FA02F090FF07F0BAFC2C
:10181000FF25F53528460BF08FF904F079FD07F028
:101820002FFF28460BF088F9D248D64F04838483D3
:10183000FF30C1303C73009004852D0203E000208E
:10184000401CA842FCDB08F015FF0028F7D106F089
:1018500067F805F063FF002807D108F011FB08F0D6
:10186000B3F8002801D006F097F907F0A7F900288F
:101870000ED006F083F808F0FBF8002803D005F03E
:1018800067FF05F0A9FF05F0CBFF00280CD105E0AC
:1018900008F05CFC05200BF04FF9ECE708F0E4F9E8
:1018A000002801D006F02AF9B648A030007F0028B1
:1018B00009D105F0E9FF002805D108F06FFA0028EA
:1018C00001D006F05DFA05F048FB002841D0002069
:1018D000AC4DF870A03D022068732846C0300390DC
:1018E000007D2E46403E002805D001200AF09AF9DE
:1018F000347110F049FD10F047FDA34801228475B2
:101900008274C47484814038049084649F4804774E
:1019100006F074FD002007F02FF99D4802210172A6
:101920000021417293480524E40104190523DB01D9
:10193000C01821624162934860380190017504F03B
:101940000BFA904C203C002805D000202073E08149
:1019500003E00120BCE7012020730020A075E075A2
:1019600020766076A076E076207778733871A0775D
:10197000B873F87301200AF055F900200AF052F903
:1019800003F02CFA002801D0012020747948697BEB
:10199000A0300290022969D000207062308515F0D5
:1019A000F6F8B06405A803F0A1F9002829D002993F
:1019B00000208874607C401C607405200BF0BCF82B
:1019C0000020787005200BF0B7F806A803F0F0F9B6
:1019D000002822D00299002088740120207405205C
:1019E0000BF0AAF807A803F097F9002832D0029963
:1019F000002088740120207408F01EFA01994871B3
:101A00003FE06846808AF08530867085B08502990F
:101A10000120887400202074CFE769461820085EF2
:101A2000A882E882029A0121917400222274039A0A
:101A30002C23D35E984201DAE17701E00022E277BD
:101A4000039A2E23D35E984201DD3970C7E7002048
:101A50003870C4E76846808B288368830299012028
:101A600088740020207403F039F8C5E76420F085FD
:101A700002990120887400202074288268822883BB
:101A8000A8820025B586F586358735827582B582B0
:101A9000F582F87A01286BD0387B38733D4845735E
:101AA000C030056515F073F80499C86515F06FF836
:101AB0000499354F086620373846FD71A0304562DD
:101AC00005668030C5618565FF380138C564856469
:101AD000A03085700F21C1702C4904982031816796
:101AE0002D480146057720310D71C5840398C587BF
:101AF00000980580858215F04AF80399012648660A
:101B0000009805218170C570057185714572057752
:101B100001988575009845833E7215F038F8019953
:101B2000886115F034F80399086607F0CFFF019833
:101B30000584144840388570C57105720199CD62DD
:101B40000574057545758575C57514480AF0D0FE90
:101B50000C2113480DF056FA002111480DF052FAED
:101B600007F0C4FB0F480DF0B3F806F097FA1BE03E
:101B700047E00000E825002000ED00E000560008E6
:101B800000C4090048270020282F00202834002006
:101B90008828002028330020E8300020E03B002087
:101BA000943B00203C3B002006F06AFF224804F0F2
:101BB000ADFF09F0C3FBC8200AF0BEFF07F0CAFF63
:101BC000C8200AF0B9FF00210846FFF7B9FD0198C7
:101BD000867503F0D5FB184817492030457085708D
:101BE000C5704A8D524212B28A85CB8DCB860A8748
:101BF000057406704D868D86A37C2030002B0FD097
:101C00000FE0072008F0E6FB7D20C0000AF094FFFB
:101C100007F026FD01F0FEFB002001F0F1FB3DE79F
:101C2000C28FCA848A840A8505710198FF210181C7
:101C3000C57309B0F0BD0000E825002010B506F01E
:101C400097FB00F09DFF00F0A5F800F055F8FFF7B6
:101C5000D5FB07F0C7FB01F04FFA10BD10B5064CDD
:101C6000208B002807D12079002801D10520207180
:101C700001F06AFE208310BDA827002010B5074C94
:101C8000E08F002809D1204640300179002901D198
:101C90004179017101F058FEE08710BD68270020EE
:101CA00038B5134C208800281BD12079002801D199
:101CB0006079207101F048FE20800E4C20790028C8
:101CC0000FD0684603F028F8002807D0204680305F
:101CD000417C0A2906D2491C417405E06846008807
:101CE000208338BD01210174002009F09BFF38BD1D
:101CF000A8270020A826002070B5224A10790028C5
:101D000029D00020107110462038C38C117D5B1C37
:101D1000C384FE291FD100201B4C69235B012118BD
:101D2000C9184D7B897F8D4215D1401C0828F6DBF0
:101D30001448401C417D037D0802184343BA1148F2
:101D4000C01C417D047D0802204341BA0F4804892C
:101D50009C4201D0018170BDC38001810C4C507E3A
:101D600060770A4807494038008D1A311438C2B2EA
:101D7000204622776038806FFEF714FA0120A075A4
:101D800070BD000008310020E82500202833002025
:101D9000482F0020F0B58DB001200790FA4802903E
:101DA000807D00287ED0029900208875F7480121A7
:101DB0000C90017706F0ACF9F34860380890846F16
:101DC000F34821780390408F814201D0002969D1E6
:101DD000F04E02983246417F30462C300B90FF3255
:101DE0000C3861320590049239225201B2180092E7
:101DF00015225201B218099251225201B2180A92C8
:101E00003246FF3281320692803A01920720052243
:101E100000023546D201091F30184035B7180B00B3
:101E200015F022FB40213F413F3F3F5076833F90DA
:101E3000ADC9FDFCFBFAF9F83FF73F3F3F3F3FF6E6
:101E40003F3F3F3F3F3F3F3F3FF5F4F3F2F1F0EFBD
:101E5000EE3FEDECEBEAE9E8E7E6E5E4E3E2E1E0BA
:101E6000DFDEDDDCDB3F012005214902321852189C
:101E7000D279235C9A4201D000220792401C0928A3
:101E8000F4DB079800280CD00A980124847009F02C
:101E90007FFB05200AF050FE05F07EFEBA48603058
:101EA000047102E220E2601CFEF7ADF92179000224
:101EB000000A0906084301F06FFA14F068FE089959
:101EC000C865F2E1A17862780802104340BA00B216
:101ED000410404D50121C903084300B201E04004D4
:101EE000400C069A0021515E039A3E23D35E834242
:101EF00002DB814200DCF0840599012048700499DE
:101F0000E2788A742871E078012865D00220BCE06C
:101F1000F08C039AFF303E212D30515E00B2814299
:101F20000CDC0DE001202871BFE1F08C069AFF382F
:101F300000212D38515E00B2814201DAF084F1E7D0
:101F4000F184EFE7687A022802D1E87A0528A8D060
:101F500060780028708D00D04042B085A078E1788C
:101F6000002808D0708D002900D04042F08605205E
:101F70000499487499E1F08DF0860620F8E76078BE
:101F80000028708D00D04042B0850B9802F01EFBF7
:101F9000B08D3087F084F086059901204870049A4E
:101FA0000521917428710298007F022889D9089828
:101FB000806F807866E0A17862780802104340BAAA
:101FC000F8850298007F009003283CD9E01CFEF7BA
:101FD0001AF900BA000A23E056E0F9E3F9E3E6E370
:101FE00098E38EE3D9E2CFE2A0E27EE269E260E22A
:101FF0004DE247E28EE183E178E157E14CE13EE1D9
:1020000021E119E112E100E1FCE0F8E0E9E0E4E0BF
:10201000DDE0C7E0ADE0A2E070E05BE046E023E099
:10202000A179000208435C493863884202DD5B49BC
:1020300040183863E01DFEF7E6F800BA000AA17AFE
:102040000002084378630998007B002805D00098B7
:10205000032802D901F0A8FC01E001F04BFAF0845A
:10206000059901204870F6E3F08DF0840599012070
:102070004870049906228A7428710298007F01280A
:10208000F1D9607800280DD0002002F0B9FA0522BD
:102090000021D201B218084611620521C901711848
:1020A0004862D8E3022002F0ABFAD4E301980121A0
:1020B0000174C07A019A201840781081FF2806D058
:1020C000FE28D0D0D173642148431081C3E300209F
:1020D000D073C0E3A17862780802104340BA00B21E
:1020E000F0842E21715E002901DA4042F0840599C6
:1020F000012048700498E1788174ACE360786278DC
:10210000C109A078C9010002104340BA00B24204DC
:1021100004D50122D203104304B201E04404640C4C
:1021200006980027C75FE01B00B200290ED00028E8
:102130000CDBFF2180B22D31FDF7DAFF4000801962
:10214000FF30FF300230008C001904B203983E21AA
:10215000415EA14287DBA74285DCB4847BE3B08C7F
:10216000039AFF303E212D30515E00B2814209DCDE
:1021700016E0B08C069AFF3800212D38515E00B26F
:1021800081420DDAB08466E3482F0020E830002059
:1021900028270020E82500200095BA0A00D68AEA00
:1021A000B18458E30298007F01280ED96078012895
:1021B0000BD0F72803D0F62805D0012000E00A2034
:1021C00000F09EFC47E30920FAE70220F8E70B98AD
:1021D00002F0FCF9B08D30873DE3002002F06EF88C
:1021E00039E30298007F0B2887D904F0B5F904F091
:1021F000E7F964200AF0A0FC09F060F82BE304F092
:1022000059F9F9E704F060F825E36178FE480229FE
:1022100002D0012904D01EE3407E012803D01AE336
:10222000407E02289AD104F071FA14E3002001F0F4
:102230007DFEFFF723FD0EE3F448617801771C3043
:1022400009F02CFA07E3012005214902321852183F
:10225000D279235C9A4201D000220792401C0928BF
:10226000F4DBA07A617A0002084340BA04B207980E
:10227000002888D0204609F043FA7485EBE2601C00
:10228000FDF7C1FF00BA000A2179000208430C994A
:10229000886109F019FADEE2A0786178000208434B
:1022A0000C9940BA888209F01FFAD4E20120052176
:1022B000490232185218D279235C9A4201D0002286
:1022C0000792401C0928F4DB0798002884D0029864
:1022D000617A4177A27A027721460B312046FDF7D9
:1022E00061FF0299012088750DB0F0BDA07861787A
:1022F00000020843069940BA488109F0C1F9AAE2F0
:102300000A986178017008F0D7F80A98007809F007
:102310006BF8A0E2012005235B023218D118C979BD
:10232000225C914201D000210791401C0928F4DB76
:102330000798002886D0607A002802D001284BD068
:1023400092E020460A30FDF75EFF00BA000A617B8A
:10235000AE4E000208436036F06620460E30FDF7B0
:1023600052FF00BA000A617C000208433067204631
:102370001230FDF748FF00BA000A617D00020843F1
:10238000706720461630FDF73EFF00BA000A617EF6
:1023900000020843B06720461A30FDF734FF00BA48
:1023A000000A617F00020843F06720461E30FDF7F7
:1023B0002AFF00BA010A2046203042780902114360
:1023C00022343960617822780902114349BAB9830D
:1023D00001790998817247E020460A30FDF713FF22
:1023E00000BA000A617B00020843786020460E3084
:1023F000FDF709FF00BA000A617C00020843B860DB
:1024000020461230FDF7FFFE00BA000A617D00028F
:102410000843F86020461630FDF7F5FE00BA000AC2
:10242000617E00020843386120461A30FDF7EBFE5A
:1024300000BA000A617F00020843786120461E301E
:10244000FDF7E1FE00BA010A204620304278090279
:1024500011432234B961617822780902114349BAE3
:10246000F98301790998C172694A11460E39084603
:10247000303808F030FEFF20F5300AF05DFB022214
:1024800050213AE16078707108F0E4FDE3E15F48C3
:10249000012120304172A0786178000208435D4933
:1024A00040BA48430699086514F071FB0699C86460
:1024B000D1E106996078087409F0F6F801225649CE
:1024C0001BE1A17862780802104340BA7085217937
:1024D000E2780802104340BAF08505986179817668
:1024E00008F09EFE0122B52107E1601CA27801469A
:1024F00063781002184340BA78872279E378100293
:10250000184340BA3887487909790002084340BA2D
:10251000B8870998E1798177217A017308F0B0FED4
:10252000FF2101221F31002001F082FF0898836FF4
:1025300099785A7808021043DC7846BA202C00D9E2
:10254000D2E6181D2246314609F0E6F87D20C0008B
:102550000AF0F2FA22463146002001F069FF0298A3
:10256000017F201D81420CD90899896F085CF028F1
:1025700002D0F12802D004E00E2000E00F2000F08D
:10258000BFFA22463146B8E0A178627808021043CB
:10259000E27841BA202AD3D8AFE00198224620320F
:1025A0004079517A88427DD061781848CB07E0386D
:1025B000002B0BD0E378A6781B0233435BBAC383AE
:1025C000637926791B0233435BBA03848B0752D5A8
:1025D000E379A6791B0233435BBA4384637A267A94
:1025E0001B0233435BBA8384E37AA67A1B0233432C
:1025F0005BBAC384637B267B1B0233435BBA0385D0
:10260000E37BA67B1B0209E0682B002088270020C3
:102610009228002060EA00003602000033435BBAD3
:102620004385637C267C1B0233435BBA8385E37C52
:10263000A67C1B0233435BBAC385637D267D1B02E8
:1026400033435BBA0386E37DA67D1B0233435BBA4B
:102650004386637E267E1B0233435BBA8386E37E1A
:10266000A67E1B0233435BBAC386637F267F1B02B1
:1026700033435BBA03874B0705D5E67FA77F330259
:102680003B435BBA43870B070FD5537816781B0281
:1026900033435BBA8387234622335E781F78330245
:1026A0003B4300E02CE05BBAC387C8060ED55079E7
:1026B00013790002184343BA0198223403806079E9
:1026C000237900021843019B40BA5880880602D53E
:1026D0000198137A03710198527A4271084602F008
:1026E00033F900280CD10198407908F0BFFDFF2094
:1026F000F5300AF021FA0122B421002001F098FE01
:10270000A9E000986178C170814804F07BFB0099D2
:10271000887545E06178CA0705D0E278A37812028F
:102720001A4352BAC2848A0705D562792379120204
:102730001A4352BA02854A0705D5E279A3791202F3
:102740001A4352BA42850A0705D5627A237A1202E1
:102750001A4352BA8285CA0601D5A27AC2858A0670
:1027600001D5E27A02864A0601D5227B42860A0614
:1027700001D5627B82860098A27BC275644804F012
:102780008DF800280CD10098C07D08F00DFEFF20C8
:10279000F5300AF0D1F90122B621002001F048FEFF
:1027A00004F0D1FB0099887508F0C8FD53E000994A
:1027B00062788A76A17800290CD00021009AD1761F
:1027C000217911770F290AD0102905D0062108E0B8
:1027D0003EE039E00121F1E7217A490000E0217A69
:1027E000C91DC18700211D22920107E0089BCC1C56
:1027F0009B6F1B5D7418A4186371491CC38F8B42B7
:10280000F4DC0098C07E09F00DFA7D20C0000AF0CB
:1028100093F900983F49C07E06F068FA0446009894
:10282000C07E09F0FFF93B4A521F002C08D0032C50
:1028300008D0022010702146002001F01BFE0AE0A3
:102840000020F7E70120F5E7002001F07DFE02E01F
:10285000002001F07FFC02980424407F0A38030026
:1028600014F002FE170E0E0E0E0E0E0E0E0D0D19AA
:1028700019191F0D260D0D0D0D3C45470D0033E5B3
:1028800014F085F90899C865687B0028F7D16C7346
:10289000FFF7F4F928E50320687305990120887093
:1028A00031E0687A0228F5D007216C73032012E02A
:1028B000687A0228EED1E87A0428EBD10399002047
:1028C0008875C875C87608774876887604998873BD
:1028D000C87301210846FEF733FF05E5687B03282E
:1028E000D8D00228D6D00599012088700AE00220AD
:1028F00008E0687B0328CDD00228CBD005990120C1
:10290000887005206873FFF7B9F906F0ADFFEBE4B6
:10291000E82500202D2D0020FEB54E4D09202E4625
:10292000403E697B0002301801900B2000023018F5
:102930003746344620370090FF34B87861340B00B6
:1029400014F092FD0665041F232D128500280AD07D
:10295000012028713820305E02F080FE387800288F
:1029600001D005202075FEBD0028FCD00120287173
:102970002E20305E02F072FE38780028F3D0062058
:10298000F0E702F07FFF0A20ECE70028EBD00120FF
:1029900028712420305E02F061FE0920E2E7A07C6D
:1029A00020750198C06D14F0F8F800998969884283
:1029B00004D900206873FFF761F9FEBD787800281C
:1029C00022D025482449C07D8039002802D0087CC7
:1029D000002819D0C87B002813D0207C062810D0EE
:1029E00005280ED026200822305E8A5E904203DD44
:1029F000104602F033FEFEBD51428842F9DA08B2B9
:102A0000F7E72620305EF4E702F03CFFFEBD1148F8
:102A10000A3801F0DBFD012028713620305E02F01B
:102A20001DFE3878002801D0607C20750198C06DAB
:102A300014F0B3F800998969401A08498842E5D929
:102A400070790028E2D0042000F05AF8FEBD002082
:102A5000FAE700002826002068270020C027090088
:102A600010B5064C608D002807D12079002801D1CF
:102A70006079207100F086FF608510BDA8270020D6
:102A800010B5064CA08A002807D12079002801D172
:102A90006079207100F058FFA08210BDA8270020A7
:102AA000074800220749C2720B699B0000D501222A
:102AB000C27208690122D205104308617047000004
:102AC000482700204010024010B50B48007C002829
:102AD0000ED00024052006F06BFA06F0EDFB8C20EA
:102AE0000AF02AF805480AF029FC641C142CF1DBD2
:102AF00006F0FCFB10BD000008260020783B0020FB
:102B000070B50446801E7D25ED00030014F0ACFC7A
:102B10000F1414141B141B141B1414141B1B140962
:102B20001B00052000F06CFC14480021491C814268
:102B3000FCDB0AF05FFC06E007F037F8284609F0F6
:102B4000FBFF04F027FE204607F044FC284609F06E
:102B5000F3FF052000F054FC284609F0EDFF06F0D5
:102B6000C5FB0B2C06D00A2C04D0092C02D00AF08D
:102B700041FC70BD02F04CF970BD000000C40900BA
:102B8000F0B58DB000206946088088800881888172
:102B90000882FF4F8882F98A00297AD0F882FD489E
:102BA0000AF0CCFBFC480790027E0D21C901384693
:102BB000411808910B2109024418012A11D0F74944
:102BC000A0694518F6480A90C06D13F0E6FF064666
:102BD0000798806B13F0E1FF864205D20A98C06D1A
:102BE00004E00898856DEDE70798806B13F0D5FF3A
:102BF000EB49C0310979002908D0217F002905D08F
:102C0000A84203D90020207705F0E8FCE048E54E13
:102C100040300B90407A00280AD1307F002807D03E
:102C2000388B1921FDF764FA022901D101F048F926
:102C30004B21D74849014118727AFF308130069103
:102C40000990002A10D0C06C13F0A7FF0999096DF4
:102C5000884201D9002070724B21388BC900FDF7E2
:102C600047FA00294FD057E001F016F8A18A388BB7
:102C7000FDF73EFA00291CD10698C079002818D02B
:102C8000C8482038007F0028B07803D0002803D13E
:102C90000FE027E2002802D0C0B2401EB070C0078B
:102CA00023D0002001F00AFB002802D0B078401C9D
:102CB000B070A58A388B2946FDF71AFA6808814258
:102CC000CAD10698C0790028C6D0B74DA878002888
:102CD000C2D1E87800280CD0002001F04BFB00287E
:102CE000BAD1E878401EE870B6E7002001F01EF97E
:102CF000DAE70B98407A0028AED00428ACD0082040
:102D0000FFF7FEFEA8E70A98006E13F046FF216A5F
:102D1000884201D9FEF7B2FF9D483221008BFDF7B2
:102D2000E7F99B4D2F46C037803500290AD1387905
:102D3000002807D0A86C13F030FF9C49884201D9C5
:102D4000FEF73EFB9A48A18A8088914C80B2091810
:102D5000208BFDF7CDF9204620300A90002913D1B1
:102D60000B98407A00280FD004280DD00798007ED9
:102D7000012809D08F48007F002805D10698C07926
:102D8000002809D00020F07081481921008BFDF740
:102D9000AFF902291CD025E0F078082810D205F000
:102DA00093FBF0788249401CF0700520B070091D3B
:102DB00081480BF03CF87E484168490E4160E3E7EA
:102DC0000A98007C0028DFD10520FFF799FEDBE799
:102DD00003F03EFE794C0028A07514D00020A070AE
:102DE0002071E0706F48797B6038069002296ED0C0
:102DF0006748FF21008B2D31FDF77AF9694C803C43
:102E00006F2918D04AE06A480078002806D1604847
:102E100003F0BEFEA0756649012008705C4803F00F
:102E200003FFA0755A4803F0C9FEA075584803F087
:102E30004DFEA075D6E7684601F058FF002805D082
:102E4000607C0A2825D2401C607424E06846008813
:102E500068855F2803D9B97B7973E96B2964797B2D
:102E6000002904D0E88506984021417509E0286CC6
:102E700064225043E96BFDF751F9E885069900207B
:102E8000487500202074607441490120A031887485
:102E900004E001202074002008F0C4FE307F0028E8
:102EA00001D0192101E0FF212D31394E308BFDF782
:102EB0001FF90B2946D104A903A801F05DFF0028E2
:102EC00006D0607C0A2838D2401C607437E0C1E02C
:102ED00069460C20085E3882098A798200212174B3
:102EE00061740B9A527A002A02D0002806D021E0A1
:102EF00000281FD106990120487023E0294A2E207E
:102F0000C032105E099A3623D35E984212DA342317
:102F1000D35E98420EDD2348E030007A002809D0C5
:102F20000A984078002805D00698007C062801D031
:102F30000528DFD10698417004E0012020740020AC
:102F400008F070FEFF21308B2D31FDF7D1F8D32929
:102F500013D105A801F02CFF002805D0607C0A28B9
:102F600006D2401C607405E06846808AB88204E09E
:102F700001202074002008F055FEFF21308B2D31F8
:102F8000FDF7B6F8FB2930D10A98007C002817E03D
:102F9000E8250020783B0020682B002010B6FDFFBC
:102FA000E82E0020A827002008300020C0270900B4
:102FB000FC10002028340020883B0020082D002031
:102FC00013D102A801F0A8FE002805D0607C0A28D1
:102FD00006D2401C607405E068460089388304E02E
:102FE00001202074002008F01DFE308B0521FDF724
:102FF0007FF8012930D101A801F05AFD002805D041
:10300000607C0A2820D2401C60741FE068468088DB
:1030100001B26987607C401C4843296C41182964CF
:103020006A6A80186862288D401C2885E86B814296
:1030300001DC084600E02864002801DA002028644A
:1030400000202074607407E001202074002008F044
:10305000E9FD01E080214175234C0120A075207D10
:10306000E51F6075F93D687800280BD02046E030F8
:10307000007B2075288B1D4988420AD1207D0028BD
:1030800003D004E001F0ECFBF3E701F029FB06F0CC
:10309000A9FE08F0E3FD0798007E012809D10798F2
:1030A000806B13F07AFD1249884202D907980421F7
:1030B0000176288B0521FDF71BF8002908D106A809
:1030C00013F03CFB0899069808660A4913F052FB76
:1030D000288B0521FDF70CF8042901D101F0B6FA7F
:1030E00002F0D4FB0DB0F0BDE8260020B70B0000C5
:1030F000C0270900CC2C0020F8B5494E0025708B64
:10310000002877D00020708302F0E0FDB08B4549A5
:10311000454C884203D1E08920820020E08140486C
:103120004030C17A072905D1407B002802D1E089CF
:10313000401CE0813C4FA07D403F002804D0012886
:1031400014D0022834D128E0FEF7E8F8FEF7F6F8AC
:1031500000F070F9002827D0A07C002824D101209D
:10316000A075B86C401C0125B86423E0FEF7D6F8C2
:10317000FEF7E4F800F05EF9002802D0A07C0028F9
:1031800007D0A089A18A884212D30220A075012508
:1031900016E0B86C401CB86406E0FEF7BFF8FEF716
:1031A000CDF8A07C002803D0A07D012802D007E044
:1031B0000020EBE7B08B0A21FCF79AFF002905D02D
:1031C000B08BB421FCF794FF002900D10125174EE4
:1031D000307F002806D00020A081B864307707F047
:1031E0005FFF0125B07E002805D00120A0740021DA
:1031F000B17606E012E0F07E002805D00020A07431
:10320000F07607F057FF0125A07CE17C884201D0D1
:10321000E07401E0002D01D0FEF7C4F8F8BD000015
:10322000E82500209F050000282F00200827002007
:10323000F8B5524E0125F582348B5148002784425F
:1032400012D2FF212D312046FCF752FF002908D170
:103250007583B08B4B49884202D2401CB08300E09A
:10326000B783641C348300E03783474D286E13F026
:1032700094FC2C46803CE16988426CD2308B05215D
:10328000FCF736FF002949D12646C03E707A002857
:103290001CD0012843D0022844D003282DD1204639
:1032A0004030807C002808D00023082219460220E4
:1032B00004F0A2FF04F096FD1CE00023042219464E
:1032C000022004F099FF04F075FE13E0142020564C
:1032D000012806D0042804D0012805D1A8790028A7
:1032E00002D001232F2201E001230F22002102201E
:1032F00004F082FF707A002810D0244CE079002876
:103300000AD02546603DE86D13F047FC204E214A67
:10331000B1698918884208D904F0FAFEF8BD002383
:103320000E22E3E700230822E0E7E0790028F5D049
:10333000E86D13F032FCB169884206D901231A46C0
:103340000021022004F058FFF8BDE0790028FBD0EE
:1033500004F018FFF8BD286E13F01FFC7D22E16910
:10336000D20089188842F5D204F03CFD04F022FE18
:1033700004F0CEFE04F0AAFDF8BD0000E825002010
:10338000B80B00009F05000068270020482F002090
:10339000E8300020C0270900F8B50546164900208E
:1033A00000900C46886F8034462812D0606900284F
:1033B0000FD0096E2E1A081AFDF7B7F907463046E6
:1033C000FDF7B3F93946FCF7BEFF2169FCF77EFF34
:1033D000206165612846009913F044FAA1692069CB
:1033E000FCF76CFF400040080449FDF78FFA01D854
:1033F00007F0E4F8F8BD0000682C00206F12833A53
:1034000010B5034A0021126E101813F08DF910BD8B
:10341000682C002010B5064C208D002807D120799B
:10342000002801D16079207100F08EFA208510BD4E
:10343000A82700200F48017C827C4900920089184F
:10344000827DD2008918027E12018918427E5201C3
:103450008918C27E407F9201891800020918054828
:1034600020304078000308180004000C00D0012030
:1034700070470000282700201748027C017B52007B
:103480008918827C837D9200DB00D2188918027E25
:1034900012018918427E52018918C27E9201891850
:1034A000427F12028918827FC07F520289188002EF
:1034B0000918094820300278D2028918427812038C
:1034C0008918827852038918827BC07B92038918FD
:1034D000C003081880B27047282700200448817C68
:1034E000027C89005200007B89180818C0B270471E
:1034F00028270020F0B5F84C2E25655FF8480122FA
:10350000F64E2918F74B8FB0F7483271994213D312
:103510008274002001F074F8314605230020403900
:10352000DB01CB18024618620520C0010818426270
:103530003C20085E0FB0F0BDE7491C222031A25E9E
:103540000227097A0891AA427EDD87742846FDF792
:10355000F3F80022E54BFDF74FF8E54AE54BFCF7A1
:10356000E3FF0022E44BFDF747F80F46DA49064631
:1035700080390A91C86EFDF7DFF80022DF4BFDF7B6
:103580003BF803910A990290086FFDF7D5F80022E5
:10359000DA4BFDF731F832463B46FCF7C5FF0191A7
:1035A00000900A99486FFDF7C7F80022D34BFDF74A
:1035B00023F832463B46FCF7B7FF32463B46FCF762
:1035C000B3FF07910A990690886FFDF7B5F80022BE
:1035D000CA4BFDF711F832463B46FCF7A5FF3246D1
:1035E0003B46FCF7A1FF32463B46FCF79DFF0591A9
:1035F0000A990490C86FFDF79FF80022BF4BFCF7B3
:10360000FBFF32463B46FCF78FFF32463B46FCF75A
:103610008BFF32463B46FCF787FF32463B46FCF7C2
:1036200083FF0D910C902068FDF786F80022B34BC4
:10363000FCF7E2FF32463B46FCF776FF32463B465C
:10364000FCF772FF324600E070E03B46FCF76CFF8F
:1036500032463B46FCF768FF32463B46FCF764FFC8
:103660000B910A90019B009A03990298FCF7AAFE1D
:10367000079B069AFCF7A6FE059B049AFCF7A2FEA0
:103680000D9B0C9AFCF79EFE0B9B0A9AFCF79AFE88
:1036900004460898009101280ED00022984B20463D
:1036A000FCF734FF8D4A0523403ADB01D31818623A
:1036B0000520C001101841620120EBE0224630468F
:1036C0003946009BFCF77EFE00228B4BFCF72CFF5B
:1036D000874A884BFCF790FF0022844BFCF724FFBD
:1036E00014F0BAFF06460F4601E0002637467B4835
:1036F00005224038D2018218009914620522D201B5
:103700008018416200227F4B30463946FDF7CEF8E3
:103710007DD300227C4B30463946FDF7B3F877D293
:103720007A48002D75DD002874DBF8E01E21615E0B
:10373000A94270DA87742846FCF7FEFF00226B4B23
:10374000FCF75AFF6A4A6B4BFCF7EEFE00226A4B0D
:10375000FCF752FF06460F466068FCF7EDFF0022BB
:10376000664BFCF749FF03910290A068FCF7E4FF69
:103770000022624BFCF740FF32463B46FCF7D4FE8A
:1037800001910090E068FCF7D7FF00225B4BFCF74B
:1037900033FF32463B46FCF7C7FE32463B46FCF75A
:1037A000C3FE079106902069FCF7C6FF0022534B29
:1037B000FCF722FF32463B46FCF7B6FE32463B465C
:1037C000FCF7B2FE32463B46FCF7AEFE0591049094
:1037D0006069FCF7B1FF0022484BFCF70DFF324651
:1037E0003B46FCF7A1FE32463B46FCF79DFE3246C7
:1037F0003B46FCF799FE32463B46FCF795FE0D91A1
:103800000C90A069FCF798FF00223C4B04E054E0C8
:1038100056E05BE05EE07BE0FCF7EEFE32463B46C6
:10382000FCF782FE32463B46FCF77EFE32463B46C4
:10383000FCF77AFE32463B46FCF776FE32463B46C4
:10384000FCF772FE0B910A90019B009A0399029873
:10385000FCF7B8FD079B069AFCF7B4FD059B049A9C
:10386000FCF7B0FD0D9B0C9AFCF7ACFD0B9B0A9A84
:10387000FCF7A8FD044608980091032809D01748D2
:1038800005224038D201821814620522D201801824
:103890004162032000F0B4FE104905204039C00108
:1038A00008180522D2018918006A496A2246009B3D
:1038B000FCF7FCFF00D918E700E71448C04330E7E5
:1038C00030463946FCF788FF00B22AE7002D26DA99
:1038D000002824DD002022E068280020282600207F
:1038E00028230000514600004827002000005940CE
:1038F000182D4454FB210940008066400088C340D5
:103900000000F03FC0FFDF400000E0C00080FFFF8C
:1039100000248474022000F073FE347128460949A3
:10392000084AC97C603A08183E21515E00B28142C3
:1039300005DB40320021515E814200DCFAE5084699
:10394000F8E500008827002010B50B490B480AF065
:103950006EFA094A0A49083ACB799068D8405080F3
:103960000A7A8039898FC906C90E8B00C9184A4363
:103970001018C01C80B210BD04110020883B00202C
:10398000A827002010B5064906480AF050FA044955
:10399000192208398868800F5043488010BD000004
:1039A00004110020883B0020F0B5AE4899B00146D4
:1039B00040310B91FF3121310A910521C901401895
:1039C0000F90408FFCF7CCFE00900F980191008F74
:1039D000FCF7C6FE059104900F98406BFCF7ACFE17
:1039E000A14E00223346FCF707FE04460F980D4611
:1039F000006BFCF7A1FE00223346FCF7FDFD009AA8
:103A0000019B1791169010461946FCF78DFD1391F6
:103A1000049A059B06460C91129010461946FCF735
:103A200083FD109011913046019B009A0C99FCF790
:103A30007BFD019B009AFCF777FD07910690002221
:103A40008A4B20462946FCF731FF0AD20A99012009
:103A50008874002000F0D4FD82493C20085E19B033
:103A6000F0BD0A9900208874022000F0C9FD0022F0
:103A7000134617991698FCF719FF03D20F993C20AB
:103A8000085E03E00F98808F404200B2784F0C90A0
:103A900000223B4620462946FCF7AEFD754A764B90
:103AA000FCF742FD0291039015F08EF804460D4696
:103AB00000223B4617991698FCF79EFD6D4A6E4B07
:103AC000FCF732FD15F080F822462B46FCF72CFD62
:103AD00006460F460299039814F072FD04460D46FF
:103AE000059B049A01990098FCF71EFD22462B467F
:103AF000FCF71AFD22462B46FCF716FD03910290B7
:103B0000119B109A13991298FCF70EFD32463B4612
:103B1000FCF70AFD32463B46FCF706FD22462B46E3
:103B2000FCF702FD22462B46FCF7FEFC09910890AB
:103B300032463B4607990698FCF7F6FC32463B4670
:103B4000FCF7F2FC22462B4601910090FCF7ECFCBE
:103B500022462B46FCF7E8FC0690079132463B468E
:103B600001990098FCF7E0FC32463B46FCF7DCFC90
:103B7000079B069AFCF726FC099B089AFCF7C6FCF3
:103B80000191009022462B4613991298FCF7CCFC29
:103B900022462B46FCF7C8FC0546049132463B46BC
:103BA00013991298FCF7C0FC32463B46FCF7BCFC6C
:103BB0002A46049BFCF706FC04460D4600221346E9
:103BC00001990098FCF772FE46D20199009815F011
:103BD00049F8039B029AFCF7F5FB22462B46FCF7BB
:103BE0000BFD13F0E5FF234A234BFCF705FD0022F4
:103BF0001F4BFCF799FC04460D460022134617990B
:103C00001698FCF753FE02D20120C007454000225F
:103C10001A4B20462946FCF787FCFCF7DDFD0C9982
:103C20000222401A0A9900B28A7401210B9A11717A
:103C30001349134AC97C603A08183E21515E00B20C
:103C4000814200DA08460E4A0021203A515E814244
:103C500000DC04E7084602E70F992E20085E0021E9
:103C6000E4E70000E825002080842E4100805640D3
:103C700000806640182D4454FB2109400000594043
:103C80008827002010B503480721002204F0F4FA29
:103C900010BD000008E6D33370B5864C608D002857
:103CA00008D08549097B002904D0401E0004000C7F
:103CB00060850FD0E08A00281AD0401E0004000C56
:103CC000E08206D100F002FA002806D0E08A401C0B
:103CD000E08270BD04F0A8FF70BD20790028FBD001
:103CE000401E0006000E2071F6D0FDF75BFB70BD94
:103CF0007048218B8078002901D0002826D06D499A
:103D0000C0398B7BC0314A8B511E89B2002B03D046
:103D1000002A01D0002831D0664D403DEE8F002EA4
:103D200001D0002841D02688644D002E01D0002803
:103D300053D02E7B002E01D000286BD0A58A002DF9
:103D400001D000287DD0002B72D096E0491E0804D7
:103D5000000C2083CBD100F081F9002803D0208B08
:103D6000401C208370BD20790028FBD0401E000637
:103D7000000E2071F6D0FDF771FF70BD6183002940
:103D8000FBD1002000F0A8FB002803D0608B401C72
:103D9000608370BD20790028FBD0401E0006000E15
:103DA0002071F6D0FDF71CFB70BD761E3004000CB0
:103DB000E887F9D100F0BAF8002803D0E88F401C5A
:103DC000E88770BD20790028FBD0401E0006000E59
:103DD0002071F6D0FDF752FF70BD761E3004000C46
:103DE0002080F9D100F034FA002803D02088401C4C
:103DF000208070BD2879002801D0FDF7E1FA2079F4
:103E00000028F6D0401E0006000E2071F1D0FDF70C
:103E100047FF70BD761E3006000E2873F9D100F002
:103E2000C3F9002805D0287B401C287370BD08E02A
:103E30001FE000F0FBFB12F0AAFE20494039886425
:103E4000F4E76D1E2804000CA082EFD100F0A8FA60
:103E5000002803D0A08A401CA082E7E72079002830
:103E6000E4D0401E0006000E2071DFD0FEF708FEF1
:103E7000DCE7002A01D0002880D0218D0029D5D090
:103E80000028D3D1491E0804000C2085CED100F0B3
:103E90003FFB002803D0208D401C2085C6E72079F9
:103EA0000028C3D0401E0006000E2071BED0FFF7D0
:103EB000B1FABBE7A827002028330020A82600205D
:103EC000F0B585B000240194029403940F26144F9A
:103ED00007250822134901A80494FCF763F9FFF7AA
:103EE000FDFA694608730F482B46BE38C089021296
:103EF0004A7388730C48808C0212CA7308740A498A
:103F0000062020310856694602124A7488743A46DF
:103F1000314601A8009404F09DFC05B0F0BD0000FE
:103F20002042C43326270020282F0020F1B582B07C
:103F3000012000904348807D002803D04248007E45
:103F400001286BD005F0C6FE0746FFF795FA054637
:103F500000F07CFBEFF3108672B63C4C280A25700B
:103F600060703B483B4D017CA170407DE07039485A
:103F70004035C17A2171407B6071A7713812E071C0
:103F8000E889207200126072288AA072000AE0722A
:103F9000688A2073000A6073A88AA073000AE0731D
:103FA000E88D2074000A6074E88EA074000AE07442
:103FB00028464030018A217509126175418AA17530
:103FC0000912E175818A217609126176E98AA17662
:103FD000090AE176008B2077000A607719482746A6
:103FE00080300179A177C178E17780782037154951
:103FF000387060311E20085E0A21FCF78FF8787057
:1040000086F31088012008F097FD22212046009BAE
:10401000029A04F013FC040002D011E00020FEBD5F
:1040200012F0B5FD094980390866288AA883688A94
:10403000E883A88A2884E88A6884074900200870F1
:104040002046FEBD882C0020682B0020682F002011
:104050004827002028260020FC100020F8B507463D
:1040600016481426807D002803D01548007E0128BC
:1040700022D0FFF701FA054600F0E8FAEFF31081CD
:1040800072B6104C280A257060700F48027CA2702E
:10409000407DE07020464038427E2271807E607113
:1040A00081F31088012008F047FD33463A46062187
:1040B000204604F0C3FBF8BD0020F8BD882C00208A
:1040C000682B0020682F002048270020F8B50646FE
:1040D0001C481525807D002803D01B48007E012840
:1040E0002ED0FFF7C9F9074600F0B0FAEFF31081C0
:1040F00072B6164C380A277060701548027CA270A0
:10410000407D2246E070403A907C20711046403855
:10411000806C6071030AA371030CE371000E2072BE
:1041200090896072000AA07281F31088012008F063
:1041300003FD2B4632460B21204604F07FFBF8BDE1
:104140000020F8BD882C0020682B0020682F00205C
:104150004827002070B5064610481625807D0028A7
:1041600003D00F48007E012815D0EFF3108172B6FE
:104170000C480C4C008A40342070000A607081F3B7
:104180001088012008F0D8FC2B4632460221204638
:1041900004F054FB70BD002070BD0000882C00208E
:1041A000682B0020282F0020F8B507462448172543
:1041B000807D002803D02348007E01283ED0EFF305
:1041C000108372B62048214C416A21700A12627035
:1041D0000A14A270090EE170018D2171090A617142
:1041E000014640314A8B0E8B921BA2711212E27172
:1041F0002672320A6272CE8A8A8AB11AA1720912B2
:10420000E172227311126173828D418D521AA27371
:10421000E173018EC08D091A217460740A48E03080
:10422000407DA07483F31088012008F085FC2B46A4
:104230003A461321204604F001FBF8BD0020F8BDEA
:10424000882C0020682B002068260020682F002082
:10425000F8B5074615480226807D002803D014488B
:10426000007E01281FD005F035FD0546FFF704F953
:10427000044600F0EBF90F48291205704170847074
:10428000210AC1700C4933460A7C0271497D417193
:1042900009493A46E039C98E8171090AC17108217C
:1042A00004F0CCFAF8BD0020F8BD0000882C0020F6
:1042B000682B0020682F002048270020F8B507460B
:1042C00028480326807D284D002802D0287E01281A
:1042D0000DD02648044605F0AFFC687E2072287E8B
:1042E000030013F0C1F8050608383A3C0A00002024
:1042F000F8BD002000E001206072288CA072000A46
:10430000E0721B483346C178217381796173C179AA
:10431000A173017AE173417A2174817A6174C17A5F
:10432000A174017BE174417B2175817B6175C17B47
:10433000A175017CE175417C2176817C6176C17C2F
:10434000A176017DE176407D20773A461D21204609
:1043500004F074FAF8BD0220CEE70320CCE7042075
:10436000CAE70000882C0020682B0020682F00205E
:10437000E8250020024610B508480423044680348E
:10438000A168E46812C09830C0780F21091A034868
:104390000172092104F052FA10BD0000682F0020BC
:1043A000F8B507461D480526807D002803D01C4827
:1043B000007E012822D0EFF3108172B6194C1A4DFD
:1043C000208A2870000A6870608AA870000AE87065
:1043D000A08A2871000A6871E08AA871000AE87151
:1043E00081F31088012008F0A7FB33463A460821E4
:1043F000284604F023FA050002D00DE00020F8BDA5
:10440000208AA083608AE083A08A2084E08A608476
:1044100012F0BDFB054948662846F8BD882C0020EF
:10442000682B002068260020682F002068270020C5
:10443000F8B53D260E4C15460746202A0CD8080A2A
:1044400020706170A5702A46E01C05F0CDFDED1CC2
:10445000E9B233463A4607E0FF2020706070A07052
:10446000E07033463A460421204604F0E7F9F8BDEF
:10447000682F0020F3B581B04126EFF3108272B6A9
:104480001248124C124D807E203428702078002172
:1044900013276870FF0108E00E48212340189B0194
:1044A000C318C0195B798370491C20798842F3DCFA
:1044B00082F31088012008F03FFB20793346801CEE
:1044C000C1B22846019A04F0B9F9FEBD082D0020BA
:1044D000682F0020E825002070B502460948072310
:1044E000007E01280BD0084908488C7A04700C7BA8
:1044F0004470C97A8170032104F0A0F970BD0020D6
:1045000070BD0000682B0020E8260020682F0020E6
:1045100070B5054609480824007E01280BD005F037
:1045200057FC07482346017B06482A4601700121B3
:1045300004F084F970BD002070BD0000682B0020DD
:1045400048270020682F002070B506461B48092523
:10455000807D002803D01A48007E012817D007F07C
:10456000F1FCEFF3108472B6164917480A7902700D
:10457000022A0ED02B463246012104F05FF905468F
:1045800084F31088012008F0D7FA284670BD002077
:1045900070BDCA884270120A82700A89C270120AFB
:1045A00002714A894271120A82718989C171090AAC
:1045B00001722B4632460921DFE70000882C0020DB
:1045C000682B002068260020682F00200949497EBA
:1045D00000290DD008493E228A5E0849C82A03DB1B
:1045E000FF314131C98F02E0FF31813109880180FB
:1045F000704700008827002028260020E82500209A
:1046000010B5084C08492072097E002908D00028FE
:1046100004D002F045FA207A002801D102F02AFAEB
:1046200010BD000088280020082D00200648002129
:1046300041620185418D8185C18D01864030818A2D
:10464000C182018B418370476826002010B5104855
:104650000921C47AFF300A222130230012F004FF1E
:104660001913150E15150E10121315151515151510
:10467000151515151515150E13131500417C02E0BF
:10468000C17C00E0017D017410BD027410BD00000A
:10469000282600201CB5212069460871FF24F53426
:1046A000012301AA50210C48009408F05DFD01236C
:1046B0000A4A50210848009408F0CAFC074805211E
:1046C0000078022308436946487101AA5021024834
:1046D000009408F049FD1CBDF03A0020DC100020D9
:1046E0001CB5262069460871FF24F534012301AA70
:1046F00050210C48009408F037FD01230A4A50214C
:104700000848009408F0A4FC07480521007802231B
:1047100008436946487101AA50210248009408F0F4
:1047200023FD1CBDF03A0020DC10002038B5FF2529
:10473000F5352B46052250211C4808F0FBFB1C498F
:10474000022348708C1C0020207060708A1C50214D
:104750001648009508F008FD642008F0EDF9FFF711
:1047600099FF642008F0E8F900F024F8642008F0CC
:10477000E3F900F03DF8642008F0DEF9642008F069
:10478000DBF9042000F090F8642008F0D5F98020CF
:1047900020701120607002232246502103480095AA
:1047A00008F0E2FCFFF79CFF38BD0000F03A002063
:1047B000DC1000203EB50BA0006801900AA0006844
:1047C000FF24F5340290022301AA502100940748E7
:1047D00008F0CAFC022302AA50210448009408F001
:1047E000C3FC3EBD2A0000002D000000F03A00206E
:1047F0001CB506A000680190FF20F5300090022350
:1048000001AA5021024808F0AFFC1CBD2905000098
:10481000F03A002038B5104D00202870FF24F53400
:1048200001232A4650210D48009408F09DFC0123E5
:10483000AA1E50210948009408F00AFCA81E00781E
:1048400002234008400068702A4650210348009423
:1048500008F08AFC38BD0000DE100020F03A00208D
:104860007CB5FFF7D7FF0DA00068FF25F535019057
:104870000024012301AA50210095094808F074FC86
:104880000123084A50210648009508F0E1FB05493C
:104890000028487000D10C7820467CBD0300000041
:1048A000F03A0020DC100020F8B5254D0446002029
:1048B0002870FF26F53601232A465021214800960C
:1048C00008F052FC0123AA1E50211E48009608F051
:1048D000BFFBA81E012C06D0022C08D0042C0BD044
:1048E000082C0ED011E000788006800E0CE00078D5
:1048F0008006800E403007E000788006800E803011
:1049000002E00078C0210843687002230C4A50215D
:104910000C48009608F028FC0123094A5021094858
:10492000009608F021FC064A0123921E50210548FA
:10493000009608F08DFB012008F0FEF8F8BD00009D
:10494000DE100020F03A0020F0B555498FB0CA8B38
:104950006B469A800A8CDA804A8C1A838A8C5A8336
:10496000CA8C9A830A8DDA834A8D1A848A8D5A8476
:10497000CA8D9A840A8EDA844A8E1A858A8E5A855E
:10498000CA8E9A850A8FDA854A8F9A828A8F1A810F
:10499000C98F59814249064640310A889A814A881E
:1049A000DA81404A0223126803400D9304231E401B
:1049B000082303400C931023054604921D40C207B0
:1049C0002023184007460879D20F002803D003207F
:1049D0000002694608820024002A0CD0022301AAA2
:1049E00031490120009404F09CFA002856D17D2022
:1049F000C00008F0A1F80D9800280DD02A490C231A
:104A000006AA891C0120009404F08BFA002845D1E5
:104A10007D20C00008F090F8002E0DD0224901231F
:104A200005AA6B311846009404F07BFA002835D1B2
:104A30007D20C00008F080F80C9800280DD01A499D
:104A4000022302AA0F310120009404F06AFA002820
:104A500024D17D20C00008F06FF8002D0DD0124940
:104A6000022303AA16310120009404F05AFA002808
:104A700014D17D20C00008F05FF8002F0CD0012376
:104A800004AA0A491846009404F04BFA002805D1FC
:104A90007D20C00008F050F800F002FA0FB0F0BD21
:104AA000A82600205C9301080190000007910000F7
:104AB00038B50446002001230090064A19460648EE
:104AC00004F09BF9044AD17812790902114321803C
:104AD00038BD00001B330000A0340020F8B50026CC
:104AE0000E237D4A01217D48009604F059F97B4D43
:104AF0007B4C6F1CED1C002855D07A48E083208445
:104B00006084A084E08420856085A085E08520867F
:104B10006086A086E08620877D20C00008F00CF823
:104B200000206D4A012300906B3219466B4804F057
:104B300037F900287ED06B4860877D20C00007F0E1
:104B4000FBFF0020644A009002230F3201216348DA
:104B500004F026F900286ED06248A087E0877D2007
:104B6000C00007F0E9FF00205B4A009002231632E4
:104B700001215A4804F014F9594C4034002872D0ED
:104B80005848208060807D20C00007F0D5FF0027B6
:104B90000123554A19465148009704F001F90028AD
:104BA0007FD0EF2090E0687829780002084340BA6F
:104BB000E083787939790002084340BA2084687923
:104BC00029790002084340BA6084787A397A000271
:104BD000084340BAA084687A297A0002084340BAA0
:104BE000E084787B397B0002084340BA2085687BEB
:104BF000297B0002084340BA6085787C397C00023A
:104C0000084340BAA085687C297C0002084340BA6A
:104C1000E085787D397D0002084340BA2086687DB2
:104C2000297D0002084340BA6086787E0126397EDD
:104C3000000201E00FE017E0084340BAA086687E5A
:104C4000297E0002084340BAE086787F397F00025F
:104C5000084340BA5FE7687829780002084340BA01
:104C60006087761C69E70EE06878297800020843BF
:104C700040BAA087787939790002084340BAE087C2
:104C8000761C6CE70DE0687829780002084340BA8A
:104C90002080787939790002084340BA6080761C18
:104CA00071E76878297800020843032140BA0902B5
:104CB000761C884201D1012006E001218902884248
:104CC00001D1277101E0EE202071052E01D20120D3
:104CD000F8BD0020F8BD000001900000A0340020C5
:104CE000A8260020FFEF00000791000038B5044619
:104CF000002001230090064A1946064804F07DF87A
:104D0000044AD178127909021143218038BD00008C
:104D10001A310000A034002038B5044600200123D9
:104D20000090064A1946064804F067F8044AD1780C
:104D3000127909021143218038BD00001A330000A6
:104D4000A034002038B50446002001230090084A12
:104D50001946084804F051F8064AD1781279090238
:104D6000114309B2002900DA4942218038BD000010
:104D70000D310000A034002038B5054600200C4657
:104D800031220090022312020121084804F035F874
:104D9000064A0146D37810791B0203435079927971
:104DA000000210432B802080084638BDA03400202C
:104DB00038B50446002001230090064A19460648EB
:104DC00004F01BF8044AD1781279090211432180BA
:104DD00038BD000011310000A03400207CB5002453
:104DE000684601948480094D012301AA294618468A
:104DF000009404F096F8002806D0012301AA294661
:104E00001846009404F08DF87CBD00003D90000031
:104E100010B58AB00024089405940694079403946E
:104E2000049403231D4A012103A8009403F0B8FF52
:104E30006B461A7CDA83D97B1984987C58841A8350
:104E40003A2908D919465C83162801D98C8305E0D4
:104E5000401C888302E0491C598398830F4906232C
:104E600006AA2F310120009404F05BF869460C83F8
:104E70000A49012306AA56311846009404F051F855
:104E80000320694608830549012306AA2A311846EA
:104E9000009404F046F80AB010BD00001390000022
:104EA000F0B593B000270E23A34A0121A348009731
:104EB00003F076FFA14C661CE41C002855D0A04DE1
:104EC0000195029503950495059506950795089516
:104ED00009950A950B950C950D957D20C00007F05E
:104EE0002BFE0020944A012300906B321946934810
:104EF00003F056FF00287DD0914810907D20C0001F
:104F000007F01AFE00208C4A009002230F32012184
:104F10008A4803F045FF00286DD089480E900F9015
:104F20007D20C00007F008FE0020834A0090022385
:104F300016320121814803F033FF002875D0804EDE
:104F400011967D20C00007F0F7FD0020012300909E
:104F50007C4A1946794803F023FF002874D0ED21DC
:104F6000052F72D2032013B0F0BD607821780002C3
:104F7000084340BA0190707931790002084340BA81
:104F80000290607921790002084340BA0390707A58
:104F9000317A0002084340BA0490607A217A000214
:104FA000084340BA0590707B317B0002084340BA49
:104FB0000690607B217B0002084340BA0790707C1A
:104FC000317C0002084340BA0890607C217C0002DA
:104FD000084340BA0990707D317D0002084340BA11
:104FE0000A90607D217D01270002084340BA0B90A2
:104FF000707E01E011E019E0317E0002084340BA02
:105000000C90607E217E0002084340BA0D90707FB4
:10501000317F0002084345BA5FE7607821780002DB
:10502000084340BA7F1C109068E70FE06078217851
:105030000002084340BA0E907079317900020843AB
:1050400040BA7F1C0F906BE70DE020E0607821787C
:105050000002084340BA1190707931790002084388
:1050600046BA7F1C6DE7607821780002084303216F
:1050700040BA09027F1C884201D1012170E7012159
:105080008902884201D100216AE7EC2168E72E48B5
:10509000019AC38B93424AD1038C029A934246D120
:1050A000438C039A934242D1838C049A93423ED11B
:1050B000C38C059A93423AD1038D069A934236D116
:1050C000438D079A934232D1838D089A93422ED111
:1050D000C38D099A93422AD1038E0A9A934226D10C
:1050E000438E0B9A934222D1838E0C9A93421ED107
:1050F000C38E0D9A93421AD1028FAA4217D1438FC1
:10510000109A934213D1838F0E9A93420FD1C28F7C
:105110000F9882420BD10C48119A40300388934279
:1051200005D14288B24202D10079884201D00120E3
:1051300019E7002017E7000001900000A0340020CC
:10514000FDEF000007910000A826002038B50446B6
:1051500001200146009004230F22194803F020FE8D
:10516000034617480179C2780902114349BAC01CA5
:1051700009B2002900DA4942114A21809179557912
:105180000902294349BA521C09B2002900DA4942EE
:105190006180417905790802284340BA01B20029AB
:1051A00000DA4942A180507A117A0002084340BADD
:1051B00000B2002800DA4042E080184638BD000006
:1051C0000435002070B50B4C0D46064601221146F1
:1051D000204607F08EFD084807F0B3FD64232A46F9
:1051E000314605480AF04EF900220121204607F019
:1051F00080FD70BD001C005080390020F8B50024EF
:1052000000F0AAFD3E4B5D7B012D00D15C7F3C4848
:105210008030017B002905D003210220FCF790FAA1
:105220000120F8BD417E00290FD1817D00290CD1DC
:10523000C17E002909D13249A0318C46897B0029E1
:1052400003D16146C97B002905D004210220FCF767
:1052500077FA0220F8BD2A4AC03A1146FF3181315F
:105260004032012D02D0002D05D01BE0244EA03E7F
:10527000367C002E18D1224ECF79403EF68D3C1957
:10528000A6420FD201218177507A022808D0D07A25
:10529000052805D0162803D016210220FCF750FA65
:1052A0000320F8BD022D29D0047C002C09D1142440
:1052B0002C251C5F4D5FAC4203DB2E254D5FAC42BD
:1052C0001CDD14241C5F2C23CB5E9C4201DA0123DD
:1052D000C3772E20085E844202DD012061460870FB
:1052E000507A022808D0D07A052805D0162803D095
:1052F00016210220FCF724FA0420F8BD0020F8BD96
:10530000A826002070B51C480021837D024620326B
:10531000002B0BD1C37E002B08D1437E002B05D17F
:10532000937B002B02D1D37B002B1ED0124C403C30
:10533000257D23462033052D05D09D78012D13D1E1
:10534000258C012D10D1997021848175C17501774B
:10535000C176417681769173D173084804214173F7
:1053600007210320FCF7ECF970BDC1750177817648
:1053700001210846F6E70000282700202826002003
:10538000F0B589B000206946087304A800F018FD44
:10539000754A1146FF31A131002803D064200876F8
:1053A000002006E06846007CFF2803D163200876D1
:1053B0000120107101F02AFF6B4D6035002805D0E7
:1053C000287D002802D0694901200870664C80348D
:1053D0002079042805D00120A876E87E022803D091
:1053E00006E006F079FDF8E706F05AFD0120A87600
:1053F000287D00280AD12079022807D107A806F0C5
:105400008DFD00282FD0012006F00CFC05F0D6FF02
:105410005548297D0746FF3781373E46403E324694
:105420002032403005920690002920D04F48007865
:10543000002840D00120A875E8752876687668466F
:1054400006F082FC3879002803D06946088840427B
:105450000880694678880988081AE0810699C88713
:105460000020B0742AE06846808BE080CEE7217986
:10547000684606F021FC00280CD00120B07406F02C
:10548000D1FB694678880988081AE081B07C002839
:1054900014D02BE03879002803D0694608884042B0
:1054A0000880694678880988081A0699C887208084
:1054B0000020B074E5E70120B07417E006993E20A3
:1054C000085E3E21715EFF31F531884205DC002126
:1054D000795EFF39F539884204DA05980599407BF1
:1054E000401C02E0002070770599487305F066FFC4
:1054F0000020B082059908712079022804D000208C
:1055000020826082A08213E001A8FFF71FFE00281E
:1055100003D0012006F086FB0BE0684680882082DD
:105520006846C088608268460089A08268464089D3
:10553000E0820F4C0026A6722674387D002810D019
:10554000287D00280DD003A800F044FE002805D0D7
:105550000120207306F066FB09B0F0BD6846007BB1
:10556000A0722673F8E70000E82500201C11002037
:10557000E8260020F8B5384C1521E71FF93F3E46D4
:1055800038466156FF36403041360090142035468B
:10559000205640356037012902D0042903D00BE0A2
:1055A000042802D008E0012809D1FDF78DFA207DFA
:1055B0006075FFF755F92075207D012803D0207D07
:1055C000042804D01DE0A879002803D024E0A8799D
:1055D000002821D0B07C002810D100983E21415EE7
:1055E0003E20305E814209DAF87E012801D004288D
:1055F00001D106F071FC03F02FFEF8BD207D0428D8
:1056000003D0C0B2012804D01AE0A879002803D042
:1056100016E0A879002813D0B07C002810D100989B
:105620003E21415E0020285E814209DDF87E01288E
:1056300001D0042801D106F04FFC03F0DDFDF8BDD8
:105640000548E038007C002803D0FCF717FBFDF785
:105650003BFA03F04BFEF8BDE8260020FEB55C499E
:105660008A7C002A02D14A7F002A02D003F03EFE43
:10567000FEBD3E22574C8A5E2146FF3181314034C7
:105680000191824201DC104605E00A460021515E8C
:10569000814202DB084601212171E18F4D4D401A04
:1056A00007B22035287C00280DD04A493220085EF8
:1056B000002F02DD002804DB05E0002F03DA0028BC
:1056C00001DDFDF701FA434E424932464F86FF3273
:1056D0002978E132FF36A13638460092002921D0E0
:1056E00021790222521AF17C4A43002801DB01464B
:1056F00000E041428A4215DA02460021354829700D
:1057000082868030C18606F0E7FB11F040FA31490D
:10571000FF3708647D20C000F537874202D9009822
:105720000121C1732B4F28786037002846D12949C1
:105730003220085E002800DA4042B17C88423DDD1C
:10574000607A03281BD1E07A072818D1607B0428EF
:1057500015D10098C07B002811D1307800280ED0D8
:105760001C48006C11F019FA0199C969884206D9E0
:10577000FDF7AAF9164901202031C873FEBD15486E
:105780003221415EB07C0A18002A02DD03F064FD7C
:10579000FEBD081A12D503F02FFDFEBD707F002854
:1057A00012D0FCF77DFA00990020C8730120287000
:1057B000F87E0128F1D106F073FBFEBDFDF784F9F8
:1057C00028780028EFD1E9E7FCF758FAEBE700006A
:1057D00028270020E825002070B527481421C61F7F
:1057E000F93E35464156FF35FF20413587307E2250
:1057F000805D2C7BAB7CB25E012902D0042903D0F2
:1058000010E0002802D015E0002813D0002C07D1AA
:10581000002B05D1194DAA4202DA03F01DFD16E056
:10582000042902D0012903D00FE0002802D00CE0A7
:1058300000280AD0002C08D1002B06D10F48404286
:10584000824202DD03F0D8FC01E003F04FFD0C487A
:105850000521008BFAF74CFC00290BD104F08AF8E3
:10586000002807D001210846FBF76AFF0248002103
:105870002030817070BD0000E82600207017000005
:10588000E825002010B503F031FD10BDF0B58BB058
:1058900000206946FB4E0880012001903446F08FBD
:1058A00040346080204620380390017D60380746F0
:1058B000FF378137FF303D466130403D029000297F
:1058C0002BD001F0A3FC002841D00398007D0028D4
:1058D0003DD0ED4901200870A87C002803D00320AA
:1058E0002071FCF7CBF90020A874684606F02CFA6A
:1058F0003879002803D06946088840420880684605
:105900000088B0877988401AE081F0870020A8825B
:10591000DD480078002826D120E02179684606F08D
:10592000CBF9002804D00120A87406F07BF9EFE73A
:105930000020A8743879002803D0694608884042BE
:105940000880694678880988081AF087E0E7CE4918
:10595000002008700120CD49A8748870039801992F
:10596000007D084317D13E21695E3E20305EFF3145
:10597000F531884205DC0021795EFF39F53988422E
:1059800014DA0298407B052803D20299401C487320
:1059900001E001206877B87E002816D00220205E42
:1059A000002812D0717A032904D00EE00020687715
:1059B0000299ECE73E21715E401A00D54042398BD6
:1059C000884202DD0299012088732079022846D19D
:1059D0000398807E002842D0322007F0ADF804A85A
:1059E000FFF7B4FB002808D0012006F01BF9207E49
:1059F0000A2810D2401C207612E06846008A2082D5
:105A00006846408A60826846808AA0826846C08A6A
:105A1000E0820020EFE7002020826082A082E08206
:105A2000208AA18B401A00D54042618B884214DC49
:105A3000608AE28B801A00D5404288420DDCA08A41
:105A4000228C801A00D54042884206DCE08A628CB3
:105A5000801A00D54042884201DDFDF711F88948DF
:105A600020380190007C002801D0012100E00A21AB
:105A700084484038008BFAF73BFB824815225201DC
:105A800040388218FF30E1300992069000294DD14C
:105A9000107A00284AD07B4840380079012807A8AE
:105AA00008D003F0A1FA00287948007911D0012824
:105AB00003D03BE0FFF746F9F5E7687C0A2802D2FD
:105AC000401C687401E001202874002006F0AAF848
:105AD0002CE0012802D10020287468746846808B6D
